{
  "contractName": "SupplyChain",
  "abi": [
    {
      "anonymous": false,
      "inputs": [
        {
          "indexed": true,
          "internalType": "uint256",
          "name": "itemId",
          "type": "uint256"
        }
      ],
      "name": "ItemDeleted",
      "type": "event"
    },
    {
      "anonymous": false,
      "inputs": [
        {
          "indexed": true,
          "internalType": "uint256",
          "name": "itemId",
          "type": "uint256"
        },
        {
          "indexed": false,
          "internalType": "string",
          "name": "name",
          "type": "string"
        },
        {
          "indexed": false,
          "internalType": "uint256",
          "name": "price",
          "type": "uint256"
        },
        {
          "indexed": false,
          "internalType": "bool",
          "name": "isSold",
          "type": "bool"
        }
      ],
      "name": "ItemUpdated",
      "type": "event"
    },
    {
      "constant": true,
      "inputs": [
        {
          "internalType": "uint256",
          "name": "",
          "type": "uint256"
        }
      ],
      "name": "items",
      "outputs": [
        {
          "internalType": "string",
          "name": "name",
          "type": "string"
        },
        {
          "internalType": "uint256",
          "name": "price",
          "type": "uint256"
        },
        {
          "internalType": "address",
          "name": "owner",
          "type": "address"
        },
        {
          "internalType": "bool",
          "name": "isSold",
          "type": "bool"
        },
        {
          "internalType": "bool",
          "name": "isActive",
          "type": "bool"
        }
      ],
      "payable": false,
      "stateMutability": "view",
      "type": "function"
    },
    {
      "constant": false,
      "inputs": [
        {
          "internalType": "string",
          "name": "_name",
          "type": "string"
        },
        {
          "internalType": "uint256",
          "name": "_price",
          "type": "uint256"
        }
      ],
      "name": "addItem",
      "outputs": [],
      "payable": false,
      "stateMutability": "nonpayable",
      "type": "function"
    },
    {
      "constant": true,
      "inputs": [],
      "name": "getNumberOfItems",
      "outputs": [
        {
          "internalType": "uint256",
          "name": "",
          "type": "uint256"
        }
      ],
      "payable": false,
      "stateMutability": "view",
      "type": "function"
    },
    {
      "constant": false,
      "inputs": [
        {
          "internalType": "uint256",
          "name": "_itemId",
          "type": "uint256"
        },
        {
          "internalType": "string",
          "name": "_name",
          "type": "string"
        },
        {
          "internalType": "uint256",
          "name": "_price",
          "type": "uint256"
        },
        {
          "internalType": "bool",
          "name": "_isSold",
          "type": "bool"
        }
      ],
      "name": "updateItem",
      "outputs": [],
      "payable": false,
      "stateMutability": "nonpayable",
      "type": "function"
    },
    {
      "constant": false,
      "inputs": [
        {
          "internalType": "uint256",
          "name": "_itemId",
          "type": "uint256"
        }
      ],
      "name": "deleteItem",
      "outputs": [],
      "payable": false,
      "stateMutability": "nonpayable",
      "type": "function"
    },
    {
      "constant": true,
      "inputs": [
        {
          "internalType": "uint256",
          "name": "_itemId",
          "type": "uint256"
        }
      ],
      "name": "readItem",
      "outputs": [
        {
          "internalType": "string",
          "name": "name",
          "type": "string"
        },
        {
          "internalType": "uint256",
          "name": "price",
          "type": "uint256"
        },
        {
          "internalType": "address",
          "name": "owner",
          "type": "address"
        },
        {
          "internalType": "bool",
          "name": "isSold",
          "type": "bool"
        },
        {
          "internalType": "bool",
          "name": "isActive",
          "type": "bool"
        }
      ],
      "payable": false,
      "stateMutability": "view",
      "type": "function"
    }
  ],
  "bytecode": "0x608060405234801561001057600080fd5b50610edb806100206000396000f3fe608060405234801561001057600080fd5b50600436106100625760003560e01c806362d6bbdf14610067578063654fc8331461012c578063730ef2691461015a578063838b96bd14610178578063b72753d51461026f578063bfb231d21461034a575b600080fd5b61012a6004803603604081101561007d57600080fd5b810190808035906020019064010000000081111561009a57600080fd5b8201836020820111156100ac57600080fd5b803590602001918460018302840111640100000000831117156100ce57600080fd5b91908080601f016020809104026020016040519081016040528093929190818152602001838380828437600081840152601f19601f82011690508083019250505050505050919291929080359060200190929190505050610441565b005b6101586004803603602081101561014257600080fd5b8101908080359060200190929190505050610566565b005b6101626106f4565b6040518082815260200191505060405180910390f35b6101a46004803603602081101561018e57600080fd5b8101908080359060200190929190505050610700565b60405180806020018681526020018573ffffffffffffffffffffffffffffffffffffffff1673ffffffffffffffffffffffffffffffffffffffff1681526020018415151515815260200183151515158152602001828103825287818151815260200191508051906020019080838360005b83811015610230578082015181840152602081019050610215565b50505050905090810190601f16801561025d5780820380516001836020036101000a031916815260200191505b50965050505050505060405180910390f35b6103486004803603608081101561028557600080fd5b8101908080359060200190929190803590602001906401000000008111156102ac57600080fd5b8201836020820111156102be57600080fd5b803590602001918460018302840111640100000000831117156102e057600080fd5b91908080601f016020809104026020016040519081016040528093929190818152602001838380828437600081840152601f19601f82011690508083019250505050505050919291929080359060200190929190803515159060200190929190505050610974565b005b6103766004803603602081101561036057600080fd5b8101908080359060200190929190505050610baa565b60405180806020018681526020018573ffffffffffffffffffffffffffffffffffffffff1673ffffffffffffffffffffffffffffffffffffffff1681526020018415151515815260200183151515158152602001828103825287818151815260200191508051906020019080838360005b838110156104025780820151818401526020810190506103e7565b50505050905090810190601f16801561042f5780820380516001836020036101000a031916815260200191505b50965050505050505060405180910390f35b60006040518060a001604052808481526020018381526020013373ffffffffffffffffffffffffffffffffffffffff168152602001600015158152602001600115158152509080600181540180825580915050906001820390600052602060002090600302016000909192909190915060008201518160000190805190602001906104cd929190610cbf565b506020820151816001015560408201518160020160006101000a81548173ffffffffffffffffffffffffffffffffffffffff021916908373ffffffffffffffffffffffffffffffffffffffff16021790555060608201518160020160146101000a81548160ff02191690831515021790555060808201518160020160156101000a81548160ff0219169083151502179055505050505050565b60008054905081106105e0576040517f08c379a00000000000000000000000000000000000000000000000000000000081526004018080602001828103825260138152602001807f4974656d20646f6573206e6f742065786973740000000000000000000000000081525060200191505060405180910390fd5b60008082815481106105ee57fe5b906000526020600020906003020190508060020160009054906101000a900473ffffffffffffffffffffffffffffffffffffffff1673ffffffffffffffffffffffffffffffffffffffff163373ffffffffffffffffffffffffffffffffffffffff16146106a6576040517f08c379a0000000000000000000000000000000000000000000000000000000008152600401808060200182810382526028815260200180610e7f6028913960400191505060405180910390fd5b60008160020160156101000a81548160ff021916908315150217905550817f3d0be3a3bbdb36b253d40a546d15d6b7f402fc43e4cd4a067af359b0763b6f3c60405160405180910390a25050565b60008080549050905090565b60606000806000806000805490508610610782576040517f08c379a00000000000000000000000000000000000000000000000000000000081526004018080602001828103825260148152602001807f4974656d20646f6573206e6f742065786973742e00000000000000000000000081525060200191505060405180910390fd5b61078a610d3f565b6000878154811061079757fe5b90600052602060002090600302016040518060a0016040529081600082018054600181600116156101000203166002900480601f0160208091040260200160405190810160405280929190818152602001828054600181600116156101000203166002900480156108495780601f1061081e57610100808354040283529160200191610849565b820191906000526020600020905b81548152906001019060200180831161082c57829003601f168201915b50505050508152602001600182015481526020016002820160009054906101000a900473ffffffffffffffffffffffffffffffffffffffff1673ffffffffffffffffffffffffffffffffffffffff1673ffffffffffffffffffffffffffffffffffffffff1681526020016002820160149054906101000a900460ff161515151581526020016002820160159054906101000a900460ff16151515158152505090508060800151610944576040517f08c379a0000000000000000000000000000000000000000000000000000000008152600401808060200182810382526029815260200180610e566029913960400191505060405180910390fd5b80600001518160200151826040015183606001518460800151849450955095509550955095505091939590929450565b60008054905084106109ee576040517f08c379a00000000000000000000000000000000000000000000000000000000081526004018080602001828103825260138152602001807f4974656d20646f6573206e6f742065786973740000000000000000000000000081525060200191505060405180910390fd5b60008085815481106109fc57fe5b906000526020600020906003020190508060020160009054906101000a900473ffffffffffffffffffffffffffffffffffffffff1673ffffffffffffffffffffffffffffffffffffffff163373ffffffffffffffffffffffffffffffffffffffff1614610ab4576040517f08c379a0000000000000000000000000000000000000000000000000000000008152600401808060200182810382526028815260200180610e2e6028913960400191505060405180910390fd5b83816000019080519060200190610acc929190610d88565b50828160010181905550818160020160146101000a81548160ff021916908315150217905550847f2d55b41370f6eb72307026372a1613e38c9b5645fbaecd1057d401cfad1470ce858585604051808060200184815260200183151515158152602001828103825285818151815260200191508051906020019080838360005b83811015610b67578082015181840152602081019050610b4c565b50505050905090810190601f168015610b945780820380516001836020036101000a031916815260200191505b5094505050505060405180910390a25050505050565b60008181548110610bb757fe5b9060005260206000209060030201600091509050806000018054600181600116156101000203166002900480601f016020809104026020016040519081016040528092919081815260200182805460018160011615610100020316600290048015610c635780601f10610c3857610100808354040283529160200191610c63565b820191906000526020600020905b815481529060010190602001808311610c4657829003601f168201915b5050505050908060010154908060020160009054906101000a900473ffffffffffffffffffffffffffffffffffffffff16908060020160149054906101000a900460ff16908060020160159054906101000a900460ff16905085565b828054600181600116156101000203166002900490600052602060002090601f016020900481019282601f10610d0057805160ff1916838001178555610d2e565b82800160010185558215610d2e579182015b82811115610d2d578251825591602001919060010190610d12565b5b509050610d3b9190610e08565b5090565b6040518060a001604052806060815260200160008152602001600073ffffffffffffffffffffffffffffffffffffffff1681526020016000151581526020016000151581525090565b828054600181600116156101000203166002900490600052602060002090601f016020900481019282601f10610dc957805160ff1916838001178555610df7565b82800160010185558215610df7579182015b82811115610df6578251825591602001919060010190610ddb565b5b509050610e049190610e08565b5090565b610e2a91905b80821115610e26576000816000905550600101610e0e565b5090565b9056fe4f6e6c7920746865206974656d206f776e65722063616e2075706461746520746865206974656d2e4974656d20686173206265656e2064656c6574656420616e64206973206e6f7720696e6163746976654f6e6c7920746865206974656d206f776e65722063616e2064656c65746520746865206974656d2ea265627a7a723158206fd4c038d52d449493b25c308a2a51674ea7cfc3155ac6dc34a0559aed5312fb64736f6c63430005100032",
  "source": "// SPDX-License-Identifier: MIT\r\npragma solidity ^0.5.0;\r\n\r\n//import \"truffle/console.sol\";\r\n\r\ncontract SupplyChain {\r\n    struct Item {\r\n        string name;\r\n        //uint256 itemId;\r\n        uint256 price;\r\n        address owner;\r\n        bool isSold;\r\n        bool isActive;\r\n    }\r\n\r\n    Item[] public items;\r\n\r\n    event ItemUpdated(\r\n        uint256 indexed itemId,\r\n        string name,\r\n        uint256 price,\r\n        bool isSold\r\n    );\r\n    event ItemDeleted(uint256 indexed itemId);\r\n\r\n    //lets make a way to dynamically create an Id\r\n    function addItem(string memory _name, uint256 _price) public {\r\n        items.push(Item(_name, _price, msg.sender, false, true));\r\n    }\r\n\r\n    function getNumberOfItems() public view returns (uint) {\r\n        return items.length;\r\n    }\r\n\r\n    function updateItem(\r\n        uint256 _itemId,\r\n        string memory _name,\r\n        uint256 _price,\r\n        bool _isSold\r\n    ) public {\r\n        require(_itemId < items.length, \"Item does not exist\");\r\n        Item storage item = items[_itemId];\r\n        require(\r\n            msg.sender == item.owner,\r\n            \"Only the item owner can update the item.\"\r\n        );\r\n        item.name = _name;\r\n        item.price = _price;\r\n        item.isSold = _isSold;\r\n        emit ItemUpdated(_itemId, _name, _price, _isSold);\r\n    }\r\n\r\n    function deleteItem(uint256 _itemId) public {\r\n        require(_itemId < items.length, \"Item does not exist\");\r\n        Item storage item = items[_itemId];\r\n        require(\r\n            msg.sender == item.owner,\r\n            \"Only the item owner can delete the item.\"\r\n        );\r\n        item.isActive = false;\r\n        emit ItemDeleted(_itemId);\r\n    }\r\n\r\n    function readItem(\r\n        uint256 _itemId\r\n    )\r\n        public\r\n        view\r\n        returns (\r\n            string memory name,\r\n            uint256 price,\r\n            address owner,\r\n            bool isSold,\r\n            bool isActive\r\n        )\r\n    {\r\n        require(_itemId < items.length, \"Item does not exist.\");\r\n        Item memory item = items[_itemId];\r\n        require(item.isActive, \"Item has been deleted and is now inactive\");\r\n        return (item.name, item.price, item.owner, item.isSold, item.isActive);\r\n    }\r\n}\r\n",
  "sourcePath": "D:\\users\\snave\\Documents\\blockchain_portfolio\\supply-chain-react\\truffle\\contracts\\Supplychain.sol",
  "compiler": {
    "name": "solc",
    "version": "0.5.16+commit.9c3226ce.Emscripten.clang"
  },
  "schemaVersion": "3.4.16",
  "updatedAt": "2024-01-11T02:04:10.062Z",
  "devdoc": {
    "methods": {}
  },
  "userdoc": {
    "methods": {}
  }
}